:020000040800F2
:10000000504F0020E91F0008F11D0008F31D0008F3
:10001000F71D0008FB1D0008FF1D00080000000080
:10002000000000000000000000000000031E0008A7
:10003000051E0008000000007F5D00084520000844
:100040000320000803200008032000080320000804
:1000500003200008032000080320000803200008F4
:1000600003200008032000080320000803200008E4
:1000700003200008032000080320000803200008D4
:1000800003200008032000080320000803200008C4
:1000900003200008032000080320000803200008B4
:1000A00003200008032000080320000803200008A4
:1000B0000320000803200008032000080320000894
:1000C0000320000803200008032000080320000884
:1000D00003200008372200089B230008BF240008E3
:1000E0000320000803200008032000080320000864
:1000F0000320000803200008032000080320000854
:100100000320000803200008032000080320000843
:100110000320000803200008032000080320000833
:100120000320000803200008032000080320000823
:1001300000F002F800F045F80AA090E8000C8244B4
:100140008344AAF10107DA4501D100F03AF8AFF291
:10015000090EBAE80F0013F0010F18BFFB1A43F0A5
:100160000103184784740000A4740000103A24BFEF
:1001700078C878C1FAD8520724BF30C830C144BF0C
:1001800004680C607047000000230024002500264E
:10019000103A28BF78C1FBD8520728BF30C148BFEA
:1001A0000B607047642906F0DB85782906F0148619
:1001B000632906F0AB87002070471FB51FBD10B53F
:1001C00010BD06F0DDFF1146FFF7F7FF01F097FCC9
:1001D00006F0FBFF03B4FFF7F2FF03BC01F0BCFF26
:1001E000F0B503460C460021002000BF1AE0655C14
:1001F00045B9EF270546401C5F55E0270546401CE2
:100200005F550EE0655CEF2D07D1EF270546401CDA
:100210005F550546401C5F5503E0675C0546401C82
:100220005F55491C9142E2D3F0BD30B503460A4602
:100230000020002179E0092960D2DFE801F0050FF4
:1002400019232D37414B550001EB410402EB4404C7
:10025000FB4D2D882580841CE0B250E001EB410469
:1002600002EB4404F74D2D882580841CE0B246E063
:1002700001EB410402EB4404F34D2D882580841CDE
:10028000E0B23CE001EB410402EB4404EF4D2D8869
:100290002580841CE0B232E001EB410402EB44040F
:1002A000EB4D2D882580841CE0B228E001EB410451
:1002B00002EB4404E74D2D882580841CE0B21EE04B
:1002C00001EB410402EB4404E34D2D882580841C9E
:1002D000E0B214E001EB410402EB4404DF4D2D8851
:1002E0002580841CE0B20AE001EB410402EB4404E7
:1002F000DB4D2D882580841CE0B200E000BF00BFEC
:1003000001EB410402EB4404D64D2D886580841C2A
:10031000E0B201EB410402EB440403EB41052D88FC
:10032000A580841CE0B24C1CE1B2092983DB30BDFE
:100330008AB00026002531E1CB4802F04AF8074692
:10034000C94839460268C94806F0DBFDC64800685E
:1003500007285FD3C4480068FF285BD8002454E016
:10036000C248005D01284ED1C049601C085C0328CA
:1003700049D1A01C095CBC480068801E814242D85B
:10038000BB480068C043BB49C1F8A0010120BA497D
:10039000087012204870B9480078012804D002285B
:1003A0000ED003281DD112E0B0480119B248801CBC
:1003B00051F8032F02604A6842600989018111E007
:1003C000AA480119AC48D1F80310C1600AE0A74857
:1003D0000119A948D1F8031001610120A84908704A
:1003E00000E000BF00BF002404E000209F49085542
:1003F000601CC4B29C4800688442F6D301F0EFFF51
:1004000000209E490870601CC4B29748006884426E
:10041000A6D305E094480068FF2801D901F0DFFF6A
:1004200097480078002878D00020954908709548B2
:100430000068401C934908609348007820B19348B5
:100440000078401C914908709148007800284BD0F2
:100450008948407B002847D08C480078642843DBDB
:10046000012089490870002088490870002406E0AE
:1004700000208849085588490855601CC4B2322CB0
:10048000F6DB86497C48801CFFF7CFFE0546834893
:100490008349844ACDE90705CDE90521824883498E
:1004A000834A844BCDE90132CDE903108248834B66
:1004B000834A84490090774806F0B8FA06463246E7
:1004C00074497548FFF78CFE734806F0EFFC074649
:1004D000714B7DA2082100907E4805F0C2FC6E4958
:1004E0007D48006804F0EEF86348407B28B964203A
:1004F0006649087000206449087065480078002843
:1005000048D060480068642844D37448007820B913
:1005100000205C490860002407E03BE000205D49C2
:1005200008555D490855601CC4B2322CF6DB5B49A6
:100530005148801CFFF779FE054658485849594AEA
:10054000CDE90705CDE9052157485849584A594B87
:10055000CDE90132CDE903105748584B584A594963
:1005600000904C4806F062FA0646324649494A482D
:10057000FFF736FE484806F099FC0746464B52A264
:1005800008210090534805F06CFC4349524800682C
:1005900004F098F84FF4167001F0B1FDCCE608B500
:1005A00000254BE04E48007848B1002405E04FF4A8
:1005B0007A7001F0A4FD601CC4B2642CF7DB00204B
:1005C000474908704748484B03220121009047489B
:1005D00001F0FBFF05462946444801F0CAFE012010
:1005E000264908704FF4FA6001F089FD4048414BFC
:1005F0000322012100903D4801F0E7FF054629460E
:100600003A4801F0B6FE02201C4908704FF4FA6027
:1006100001F075FD3848394B032201210090334821
:1006200001F0D3FF05462946304801F0A2FE032021
:10063000124908704FF4FA6001F061FDB2E7000062
:100640004C7200084E720008507200085272000886
:100650005472000856720008587200085A72000856
:100660005C7200085E72000828000020D229002079
:10067000A081214200802142A029002024000020E6
:100680002C00002030000020350000203400002025
:1006900010000020042A0020622B0020C02C002023
:1006A000200100201C01002018010020140100205E
:1006B000100100200C010020E8000020FC000020B8
:1006C000EC000020E400002052533438352053451C
:1006D0004E443A00FD5F0008040000202500002081
:1006E000260000201A00002018000020B429002055
:1006F0001E0000201C0000202200002020000020FE
:100700002DE9FF4F85B092469B464FF00008002729
:1007100000250024FE480078022872D00026E7E079
:1007200005F0BBFD4FF4FA7001F0E9FC04A801F0FC
:10073000E3FEF8A1029005F06BFD804604A801F0ED
:10074000DBFE029004980090F3A20821F648029B79
:1007500005F087FB04A801F0CFFEF4A1029006F09B
:1007600067FB0546E5B1002401E0601CC4B2E01D52
:10077000285C0D28F9D100232246E91DED4806F03A
:10078000DDF9EB1DECA20821E748009405F069FBB8
:100790000420E84BE8A208210090E34805F061FB43
:1007A00004A801F0A9FEE8A1029006F041FB05466D
:1007B000E5B1002401E0601CC4B2201D285C0D28B6
:1007C000F9D100232246291DE04806F0B7F92B1D78
:1007D000DFA20821D448009405F043FB0420DB4B42
:1007E000DBA208210090D04805F03BFB04A801F0F3
:1007F00083FEDAA1029006F01BFB0546EDB1002452
:1008000002E03CE1601CC4B2201D285C0D28F9D137
:1008100000232246291DD24806F090F92B1DD1A2B3
:100820000821C148009405F01CFB0420CC4BCDA24C
:1008300008210090BC4805F014FB04A801F05CFE00
:10084000CBA1029006F0F4FA0546EDB1002401E0D8
:10085000601CC4B2601D285C0D28F9D1601EC2B2B4
:100860000123A91DC44806F069F96B1DC3A2082124
:10087000AD48009405F0F5FA0420BF4BBFA2082153
:100880000090A94805F0EDFA04A801F035FEBEA1DC
:10089000029006F0CDFA0546E5B1002401E0601CA7
:1008A000C4B2201D285C0D28F9D100232246291D41
:1008B000B64806F043F92B1DB5A208219A480094CA
:1008C00005F0CFFA0420B14BB1A208210090964860
:1008D00005F0C7FA01F016FEB8F1000F00D00AE0EB
:1008E000022E03D1002009B0BDE8F08F701CC6B203
:1008F000032EFFF615AF00BF002684E005F0D2FC02
:100900004FF4FA7001F0FBFB04A801F0F5FD81A1A2
:10091000029005F07DFC804604A801F0EDFD0290F8
:10092000049800907CA208217F48029B05F099FA68
:1009300004A801F0E1FD99A1029006F079FA0546BC
:10094000002D54D06D1D4FF000090CE0002401E093
:10095000601CC4B2285D2C28FAD1601C054409F142
:10096000010000F0FF09B9F1040FEFDB601EC2B215
:10097000291B0123804806F0E1F8601E2B1B89A289
:1009800008210090684805F06CFA04207A4B85A293
:1009900008210090644805F064FA4FF000090CE06B
:1009A000002401E0601CC4B2285D2C28FAD1601C30
:1009B000054409F1010000F0FF09B9F1020FEFDB76
:1009C000A01EC2B2291B0123794806F0B7F8A01E69
:1009D0002B1B78A208210090534805F042FA04200E
:1009E000734B74A2082100904F4805F03AFA01F0C9
:1009F00089FDB8F1000F00D008E0022E01D10020DF
:100A000071E7701CC6B2032EFFF678AF00BF002658
:100A100032E0DDE9050105F0A3FD4FF4FA7001F0C5
:100A20006EFB04A801F068FD65A1029005F0F0FBE3
:100A3000804604A801F060FD02900498009036A260
:100A400008213948029B05F00CFA01F05BFDB8F172
:100A5000000F00D112E0022E0CD15B4806F026FAFE
:100A60000290594B59A2022100902F4805F0F9F944
:100A7000002038E7701CC6B2032ECADB00BF002678
:100A800021E005F0BCFE4FF4FA7001F038FB04A839
:100A900001F032FD51A1029005F0BAFB804604A896
:100AA00001F02AFD0290049800901BA208211E4824
:100AB000029B05F0D6F901F025FDB8F1000F00D03A
:100AC00003E0701CC6B2032EDBDB00BF00268CE007
:100AD00005F09AFE4FF4FA7001F011FB04A801F042
:100AE0000BFD0CA1029005F093FB804604A801F0D9
:100AF00003FD02900498009007A208210A48029B77
:100B000005F0AFF901F0FEFCB8F1000F6BD06FE01B
:100B1000100000204F4B000062633935207265637E
:100B2000656976653C3C00000B5E00084541524615
:100B3000434E000010010020434F41505F45415299
:100B400046434E3A0000000045434C00140100208B
:100B5000434F41505F45434C3A000000534E520012
:100B600018010020434F41505F534E523A0000009D
:100B700052535251000000001C010020434F4150CD
:100B80005F525352513A0000504349002001002067
:100B9000434F41505F5043493A00000043454C4C9D
:100BA0002C000000434F41505F525352503A000016
:100BB0000C010020434F41505F525353493A00000B
:100BC0004552524F520000003672000862633935B8
:100BD00020636F6E6E6574696F6E3A002B4E4344EE
:100BE00050000000FFE7701CC6B2032EFFF670AF86
:100BF00000BF002623E005F00CFE4FF4FA7001F070
:100C00007EFA04A801F078FCAFF2F801029005F03A
:100C1000FFFA804604A801F06FFC0290049800904F
:100C2000AFF20C120821FE48029B05F01AF901F000
:100C300069FCB8F1000F00D003E0701CC6B2032EAF
:100C4000D9DB00BF00267EE0F6480088401CF5494D
:100C500008805946504605F0E1FD40F6B83001F0F5
:100C60004EFA04A801F048FCAFF2AC01029005F086
:100C7000CFFA804604A801F03FFC0290049800904F
:100C8000AFF26C120821E648029B05F0EAF804A8CE
:100C900001F032FCE4A1029006F0CAF8074677B3EF
:100CA000384606F003F903900399481F0390039810
:100CB000012804D0022807D0032821D10FE0F878BA
:100CC0003038DA4908701CE03979F878303800EBB0
:100CD000800001EB40003038D449087011E0F8780A
:100CE0003038642148433979303901EB810100EB18
:100CF0004100797908443038CC49087001E013E0AC
:100D000000BF00BF0120C94BAFF2F41208210090D0
:100D1000C74805F0A6F8002603E00020B855701C6F
:100D2000C6B20A2EF9DB02E00020C049087001F0CB
:100D3000E9FBB8F1000F00D108E0022E01D100203C
:100D4000D1E5701CC6B2032EFFF67EAF00BF0220B5
:100D5000C9E5F0B504460B460021002000BF1AE0AB
:100D60005D5CEF2D12D14D1C5D5DE02D04D100279F
:100D70000546401C675507E04D1C5D5DEF2D03D116
:100D8000EF270546401C6755491C03E05F5C05469C
:100D9000401C6755491C9142E2D3F0BD7CB500254B
:100DA000002425E005F092FA4FF4FA7001F0A7F95B
:100DB00001A801F0A1FB0646AFF2A82105F028FA30
:100DC000054601A801F098FB064601983346AFF2AC
:100DD000B82208210090924805F043F801F092FBF8
:100DE00005B107E0022C01D100207CBD601CC4B21B
:100DF000032CD7DB00BF002425E005F06CFA4FF48C
:100E0000FA7001F07CF901A801F076FB0646AFF21A
:100E1000FC2105F0FDF9054601A801F06DFB064631
:100E200001983346AFF21032082100907C4805F05B
:100E300018F801F067FB05B107E0022C01D1002092
:100E4000D3E7601CC4B2032CD7DB00BF002425E02D
:100E500005F046FA4FF4FA7001F051F901A801F0DB
:100E60004BFB0646AFF2543105F0D2F9054601A816
:100E700001F042FB064601983346AFF26432082186
:100E80000090674804F0EDFF01F03CFB05B107E07E
:100E9000022C01D10020A8E7601CC4B2032CD7DBD0
:100EA00000BF0120A1E72DE9FC470027B946002437
:100EB0000025604805F0FAFF82465E4BAFF2F4224F
:100EC00002210090564804F0CCFF002626E005F0F1
:100ED0004DFA4FF4FA7001F012F901A801F00CFB81
:100EE0008246AFF2D03105F093F9074601A801F030
:100EF00003FB824601985346AFF2E432082100908A
:100F0000474804F0AEFF01F0FDFA07B108E0022EF9
:100F100002D10020BDE8FC87701CC6B2032ED6DBD0
:100F200000BF002625E005F0EBF94FF4FA7001F060
:100F3000E6F801A801F0E0FA8246AFF2284105F098
:100F400067F9074601A801F0D7FA8246019853468F
:100F5000AFF23C4208210090314804F082FF01F0DA
:100F6000D1FA07B107E0022E01D10020D2E7701CB0
:100F7000C6B2032ED7DB00BF00263AE005F0ECF93D
:100F80004FF47A7001F0BBF801A801F0B5FA82467F
:100F9000AFF2804105F03CF9074601A801F0ACFA38
:100FA000824601985346AFF29042082100901C48B7
:100FB00004F057FF01A801F09FFA00F1020A0F2286
:100FC00051461D4805F09DFF30201B49C873102075
:100FD0000B461AA208210090114804F042FF01F0CC
:100FE00091FA07B107E0022E01D1002092E7701CB0
:100FF000C6B2032EC2DB00BF00263BE005F048F975
:101000004FF4FA7001F07BF801A801F075FA8246FE
:10101000AFF2005105F0FCF8074601A814E000000B
:101020000B5E0008120000203A302C000100002066
:10103000576000080A720008FC000020434F41502E
:101040005F494D53493A000001F056FA8246019833
:101050005346AFF23C5208210090FE4804F001FFD5
:1010600001F050FA07B107E0022E01D1002051E74C
:10107000701CC6B2032EC1DB00BF05F0FFF84FF4B1
:10108000FA7001F03CF801A801F036FA8246AFF29E
:101090007C5105F0BDF8074601A801F02DFA824603
:1010A00001985346AFF2905208210090E94804F0AD
:1010B000D8FE01A801F020FA8246E7A105F0B8FEAB
:1010C00004467CB10F22611DE54805F01AFF30206F
:1010D000E349C87310200B46E2A208210090DD48C6
:1010E00004F0BFFE01F00EFA0026F3E005F0D5F89B
:1010F0004FF4FA7001F003F801A801F0FDF98246FF
:10110000AFF2F05105F084F8074601A801F0F4F9B8
:10111000824601985346AFF2006208210090CD4804
:1011200004F09FFE01A801F0E7F98246AFF20461E6
:1011300005F07EFE0446F4B1002501E0681CC5B24E
:10114000E81D205C0D28F9D100232A46E11DC8487E
:1011500005F0F4FCE31DAFF220620821BD480095C4
:1011600004F07FFE0420C24BAFF2346208210090ED
:10117000B84804F076FE01A801F0BEF98246AFF24D
:10118000386105F055FE0446F4B1002501E0681C05
:10119000C5B2281D205C0D28F9D100232A46211D47
:1011A000B44805F0CBFC231DAFF25C620821A948CE
:1011B000009504F056FE0420AE4BAFF26C6208219D
:1011C0000090A44804F04DFE01A801F095F9824674
:1011D000AFF2786105F02CFE0446F4B1002501E081
:1011E000681CC5B2281D205C0D28F9D100232A46B1
:1011F000211DA14805F0A2FC231DAFF29862082131
:101200009448009504F02DFE04209B4BAFF2AC6295
:10121000082100908F4804F024FE01A801F06CF929
:101220008246AFF2B46105F003FE0446FCB100252E
:1012300001E0681CC5B2681D205C0D28F9D1681E4C
:10124000C2B20123A11D8D4805F078FC631DAFF2E9
:10125000D46208217F48009504F003FE0420874BE8
:10126000AFF2E862082100907A4804F0FAFD01A884
:1012700001F042F98246AFF2F06105F0D9FD044673
:10128000F4B1002501E0681CC5B2281D205C0D28C2
:10129000F9D100232A46211D794805F04FFC231D72
:1012A000AFF2147208216B48009504F0DAFD0420B7
:1012B000734BAFF2247208210090664804F0D1FD10
:1012C00001F020F907B108E0022E01D1002021E64B
:1012D000701CC6B2032EFFF609AF00BF002689E0DE
:1012E00004F0E0FF4FF4FA7000F009FF01A801F0EC
:1012F00003F98246AFF2E47104F08AFF074601A8C1
:1013000001F0FAF8824601985346AFF2F4720821D0
:101310000090504804F0A5FD01A801F0EDF88246C8
:10132000AFF2887105F084FD0446002C58D0641D8E
:101330004FF000080CE0002501E0681CC5B2605DBC
:101340002C28FAD1681C044408F1010000F0FF08C1
:10135000B8F1040FEFDB681EC2B2611B01234748DE
:1013600005F0ECFB681E631BAFF2C8720821009009
:10137000384804F076FD0420404BAFF2D8720821C3
:101380000090344804F06DFD4FF000080CE000259B
:1013900001E0681CC5B2605D2C28FAD1681C0444C9
:1013A00008F1010000F0FF08B8F1020FEFDBA81E02
:1013B000C2B2611B0123334805F0C0FBA81E631BAA
:1013C000AFF6100208210090224804F04AFD0420E4
:1013D0002C4BAFF62002082100901E4804F041FD7E
:1013E00001F090F807B108E0022E01D1002091E54C
:1013F000701CC6B2032EFFF673AF00BF224805F083
:1014000055FD8246204BAFF63C0202210090114868
:1014100004F027FD002657E0002605E04FF47A701F
:1014200000F06DFE701CC6B21E2EF7DB04F0B7FF95
:101430004FF4FA7000F063FE01A801F05DF88246F7
:10144000AFF6301104F0E4FE074601A801F054F8AD
:1014500082461BE00B5E00084347534E000000002D
:10146000EC000020434F41505F494D45493A000090
:101470001001002014010020180100201C01002090
:10148000200100200C0100200A720008F6A104F0DF
:10149000BFFE814601A801F02FF88246019853460D
:1014A000AFF68C1208210090F04804F0DAFC01F04D
:1014B00029F81FB1B9F1000F00D107E0022E01D1C8
:1014C000002027E5701CC6B2032EA5DB00BF002656
:1014D00030E004F069FF40F6C41000F010FE01A8EF
:1014E00001F00AF88246AFF6D41104F091FE0746E7
:1014F00001A801F001F88246DDA104F089FE8146D1
:1015000001A800F0F9FF824601985346AFF6F812A1
:1015100008210090D54804F0A4FC00F0F3FF1FB1AF
:10152000B9F1000F00D007E0022E01D10020F1E454
:10153000701CC6B2032ECCDB00BF002625E004F0F1
:1015400038FF40F6C41000F0DAFD01A800F0D4FF27
:101550008246AFF6402104F05BFE074601A800F08A
:10156000CBFF824601985346AFF6542208210090E3
:10157000BE4804F076FC00F0C5FF07B107E0022E7C
:1015800001D10020C6E4701CC6B2032ED7DB00BF19
:101590000120BFE40EB5002500200190FAE0B54817
:1015A000007800284CD10120B349086000BFB3483F
:1015B000007801280FD14FF47A7000F0A0FD03E00D
:1015C0004FF4FA7000F09BFDFFF7E8FB0028F7D01E
:1015D0000020AA49087004F056FE42F2107000F094
:1015E0008EFD01A800F088FF0646AFF6D82104F072
:1015F0000FFE01A800F080FF064601983346AFF6C3
:10160000E82208210090994804F02BFC00F07AFFB2
:1016100041F2883000F073FDFFF745FC0028C6D08A
:10162000012094490870964805F040FC0646944B0A
:10163000AFF66822022100908C4804F012FCA9E069
:1016400002AA00218F48006802F074FF0546284670
:1016500005F02CFC06462B468BA2082100908E48F4
:1016600004F0FFFB00208449086001208B490870CA
:1016700000208B490870284605F018FC06463246C3
:1016800029468848FFF765FB019086498648019AFC
:1016900005F037FC019840080190002403E0002089
:1016A00080490855641C7F4805F000FCA042F6D82C
:1016B000002462E07C4B7D497D48019AFFF720F8C9
:1016C000022840D16B49087010207AA3AFF604328B
:1016D00008210090654804F0C4FB734805F0E6FB60
:1016E0000646714B78A208210090604804F0B9FBCF
:1016F000002403E000206C490855641C6A4805F08A
:10170000D5FBA042F6D87448007800281ADD72484C
:10171000007804F0FDFE4FF4FA7000F0F0FC01A830
:1017200000F0EAFE064601983346AFF6144208215F
:1017300000904E4804F095FB00205849087000F0D6
:10174000E1FE1CE01BE00020544908704949087084
:10175000112062A3AFF68C3208210090434804F0B8
:1017600080FB514805F0A2FB06464F4B56A20821CC
:101770000090494804F075FB01E0032C9AD300BFA8
:101780000020464908700120454908704FF4FA705E
:1017900000F0B5FC03E72DE9FC41044600260025D6
:1017A0002DE0052C02D104F082FD08E0082C02D1C6
:1017B00004F082FD03E0142C01D104F082FD4FF40B
:1017C000FA7000F09CFC01A800F096FE0746AFF608
:1017D000BC4104F01DFD064601A800F08DFE074641
:1017E00001983B46AFF6D042082100901F4804F014
:1017F00038FB00F087FE06B103E0681CC5B2032D7C
:10180000CFDB00BFBDE8FC818AB000250020099035
:10181000F0E004F03CFB4FF4967000F070FC3448AC
:101820000078B8B104F034FD4FF4967000F067FC16
:1018300009A800F061FE064609983346AFF6285223
:1018400008210090094804F00CFB00F05BFE00202A
:10185000274908702748007828B104F014FD0020BB
:101860002449087081E047E0300000000B5E00086A
:101870002C31000010000020A481214236000020FD
:101880001C72000804000020715F626339355F73C9
:10189000656E645F6D736700FD5F000825000020C2
:1018A000000000207C2F00201E2E0020E071000888
:1018B000E57100085544505F53454E445F5355430E
:1018C00043454544000000006263393520554450CB
:1018D0002073656E64000000010000204E45545FD7
:1018E000434F4E4E5254494F4E5F455252000000F6
:1018F000E0000020DC000020F2480078C0B104F0D5
:1019000058FD4FF4FA7000F0FAFB09A800F0F4FD5E
:10191000064609983346AFF6006208210090EA486F
:1019200004F09FFA00F0EEFD0020E64908701CE08C
:10193000E648007830B10520FFF72DFF0020E3498D
:10194000087012E0E248007830B10820FFF723FF6A
:101950000020DF49087008E0DE48007828B1142034
:10196000FFF719FF0020DB490870DB4800780128E9
:1019700040D1DA48007800283CD0D9480078B0B38C
:10198000002404E00020D7490855601CC4B2502C44
:10199000F8DB1420D449D54AD54BCDE90532CDE941
:1019A0000710D448D449D54AD54BCDE90132CDE909
:1019B0000310D448D44BD54AD5490090D54805F0FA
:1019C00035F8C5B22A46D349C648FEF709FCD148C6
:1019D00005F06CFA0646CF4BCF4A08210090CF485D
:1019E00004F03FFABF49CE48006802F06BFE0020C9
:1019F000B94908700DE770B50446002500BF4FF4E3
:101A00008071C84802F0C8FCC549086004F090F92C
:101A100005460923C44A0021AFF2132003F0E4F97C
:101A20000223C24A0021AFF2934003F0DDF90623FE
:101A3000BF4A0021BF4803F0D7F90723BE4A00215F
:101A4000BE4803F0D1F90A2003F04EFC284604F00A
:101A500073F970BD10B50C21B9A000F08CFB0E21FC
:101A6000BBA000F088FB0D21BDA000F084FB0F217E
:101A7000BFA000F080FB0521C1A000F07CFB1B2172
:101A8000C1A000F078FB0121C6A000F074FB012189
:101A9000AFF2A81000F06FFB0F219C4800F06BFB29
:101AA0000121AFF6C46000F066FB0121BDA000F08B
:101AB00062FB0221A9A000F05EFB1E21BAA000F08B
:101AC0005AFB0121B7A000F056FB0121AFF2E41050
:101AD00000F051FB0821BC4800F04DFB0121BBA0E8
:101AE00000F049FB0121AFA000F045FB02219BA0C3
:101AF00000F041FB0921B6A000F03DFB10BD7CB514
:101B0000002500240020019000F0A8FA4FF4A06006
:101B100001F066F900F01AFD00F046FD4FF4165092
:101B200000F03DFB4FF4965000F0D6FB4FF41650FA
:101B300000F062FC4FF4FA6000F0E1FA39E004F0E2
:101B40009DFB4FF4FA7000F0DAFA01A800F0D4FC23
:101B50000646A2A104F05CFB054601A800F0CCFCFF
:101B60000646019833469E4A08210090564804F0E4
:101B700078F901A800F0C0FC0646AFF2247105F028
:101B800057F904469CB10F22611D604805F0B9F970
:101B900030205E49C87310200B46AFF2387208211E
:101BA0000090494804F05DF900F0ACFC02E000F060
:101BB000A9FCC4E700BFFFF74DFF4FF4FA6000F047
:101BC0009EFA4FF4612000F0EAFA0120854908608E
:101BD00000208549C1F8A00101F08BFC0A23834A4B
:101BE0000021AFF2ED1003F0FFF801F0A9FD002095
:101BF0007CBD10B500F03EFD642000F080FA10BD01
:101C0000F0B503460C460021002000BF27E0655CCC
:101C10001A2D08D1EF270546401C5F55EA270546D7
:101C2000401C5F551AE0655CEF2D07D1EF27054694
:101C3000401C5F550546401C5F550FE0655C1B2D41
:101C400008D1EF270546401C5F55EB270546401C91
:101C50005F5503E0675C0546401C5F55491C914297
:101C6000D5D3F0BD70B5034615460020002224E010
:101C70009C5CE61704EB167636110E540C5C0A2CAD
:101C800003DB0C5C37340C5402E00C5C30340C5435
:101C9000401C9C5CE61704EB16763611A4EB061686
:101CA0000E540C5C0A2C03DB0C5C37340C5402E041
:101CB0000C5C30340C54401C521CAA42D8D3002473
:101CC0000C5470BDE10000200B5E0008DD00002018
:101CD000DE000020DF000020DB00002010000020DC
:101CE00000000020562D0020A02900202001002007
:101CF0001C01002018010020140100201001002008
:101D00000C010020E8000020FC000020EC00002076
:101D1000E4000020F22C0020C8060008FD5F000847
:101D20000400002028240020240300202424002074
:101D3000240B00209F050008241300203103000815
:101D40004F464653455420334D4D0D0A00000000C8
:101D5000534554205045454C204F46460D0A00003F
:101D60005345542054454152204F4E0D0A00000067
:101D700053495A452033304D4D2C32304D4D0A00D9
:101D8000434C530D0A0000005152434F4445203745
:101D9000352C31352C4C2C352C4D2C322C4D312CF6
:101DA00053322C0022000000544558542038352C62
:101DB0003133302C2254535332342E424632222CAB
:101DC000302C312C312C000037000020470000005F
:101DD0005052494E5420310D0A0000004F4B000074
:101DE000180B0008A4812142008021422402002017
:101DF000704700BFFEE700BFFEE700BFFEE700BF81
:101E0000FEE77047704700000CB50020019000907D
:101E10006C48006840F480306A49086000BF694837
:101E2000006800F4003000900198401C0190009878
:101E300018B90198B0F5A06FF1D16248006800F4BC
:101E4000003010B10120009001E0002000900098C7
:101E5000012843D15C48006840F010005A490860EE
:101E60000846006820F0030008600846006840F05B
:101E7000020008605348406852494860084640687C
:101E800048600846406840F4806048600846406802
:101E900020F47C1048600846406840F4E810486030
:101EA0000846006840F08070086000BF4548006840
:101EB00000F000700028F9D04248406820F003008C
:101EC000404948600846406840F00200486000BF52
:101ED0003C48406800F00C000828F9D10CBD10B552
:101EE000FFF792FF10BD10B53648006840F00100C2
:101EF0003449086008464068344908403149486020
:101F000008460068324908402E49086008460068C3
:101F100020F4802008600846406820F4FE004860F5
:101F20004FF41F008860FFF7DAFF4FF00060294987
:101F3000086010BD10B5002100200022214B5B6815
:101F400003F00C0121B1042906D0082928D107E0AB
:101F5000214B224C236027E01F4B204C236023E0C1
:101F6000184B5B6803F47010164B5B6803F4803207
:101F7000022303EB904022B9194B4343174C2360D3
:101F80000DE0104B5B6803F4003323B1144B434363
:101F9000124C236003E0104B4343104C236003E0DA
:101FA0000D4B0E4C236000BF00BF064B5B68C3F3B4
:101FB00003130C4CE15C094B1B68CB40074C2360BE
:101FC00010BD000000100240002002400000FFF899
:101FD000FFFFF6FE08ED00E000127A003C00002052
:101FE00000093D004000002009488047094800479B
:101FF000FEE7FEE7FEE7FEE7FEE7FEE7FEE7FEE7B9
:10200000FEE7FEE704480549054A064B7047000015
:10201000E71E00083101000850490020504F002001
:10202000504B0020504B002010B501F0CDFA10BDF0
:1020300010B501F00EFB10BD10B50446204603F0AC
:102040001BFA10BD10B53E480078012805D101F0FB
:1020500068FA01F0ACFB01F07FFA10BD10B56FF02B
:10206000040000F00CFF374800683749B0FBF1F07E
:1020700036490870334800683349B0FBF1F441F247
:10208000883044430520324908804FF0E020006941
:1020900040F002004FF0E021086108464461006909
:1020A00040F00100086110BD2DE9F0470746002609
:1020B0004FF0E020D0F814902448007807FB00F897
:1020C00000BFFFF7B1FF4FF0E020856911E04FF04E
:1020D000E0208469AC420CD0AC4202D2281B0644FA
:1020E00003E0A9EB0400284406442546464500D3F6
:1020F00000E0ECE700BFFFF79BFFBDE8F08770B59D
:1021000004460F480078A0B11248007888B91048FA
:102110000088844206DB0E48008894FBF0F52846D0
:10212000FFF78AFF0A48008894FBF0F100FB11409A
:1021300084B24FF47A7104FB01F0FFF7B5FF70BD74
:102140009E0000203C00002000127A005000002079
:102150005200002091000020014600BF704700BFE0
:10216000EF4A128802F04002002AF9D0C2B2EC4BCA
:102170001B1D1A80704710B5024600200CE000BFFE
:10218000E74B1B8803F04003002BF9D0135CE44CB1
:10219000241D2380431CD8B28842F0D310BD10B553
:1021A00086B00446012144F2040000F0F5FF4FF42C
:1021B0000070ADF8140003208DF8160018208DF87B
:1021C000170005A9D74800F0B9FA4FF48060ADF8C0
:1021D000140004208DF8170005A9D24800F0AEFACB
:1021E00025208DF8000003208DF801008DF80200F5
:1021F00001208DF80300684600F0F7FD01940020EF
:10220000ADF80800ADF80A00ADF80C00ADF810000C
:102210000C20ADF80E0001A9C14800F020FC0122FD
:1022200040F22551BE4800F0B2FC0121BC4800F04C
:10223000A2FC06B010BD10B501F073F940F22551B3
:10224000B74800F089FD10B3B54800F005FDC4B2F1
:10225000B548008800F40040C8B9B348008800F4CD
:10226000804060B10A2C03D00020AF49088020E0F4
:10227000AD48008840F40040AB49088019E00D2CBF
:1022800006D1A948008840F48040A749088010E0A2
:10229000A5480088C0F30D00A4490C54A24800884A
:1022A000401CA149088008460088C72801DD00209D
:1022B000088001F051F910BD9B48008800F40040EF
:1022C000B0F5004F06D1984801780020964A10805A
:1022D000084670470020FCE710B586B0044601218F
:1022E000042000F059FF0121480400F062FF04209F
:1022F000ADF8140003208DF8160018208DF8170093
:1023000005A9884800F01AFA0820ADF81400042046
:102310008DF8170005A9834800F010FA26208DF8E3
:10232000000003208DF8010001208DF802008DF8D7
:102330000300684600F059FD01940020ADF8080044
:10234000ADF80A00ADF80C00ADF810000C20ADF8A7
:102350000E0001A9764800F082FB012240F22551CF
:10236000734800F014FC0121714800F004FC06B031
:1023700010BD10B5024600200CE000BF6C4B1B885E
:1023800003F04003002BF9D0135C694C241D23801B
:10239000431CD8B28842F0DB10BD10B501F0C1F883
:1023A00040F22551624800F0D7FC78B161480068DE
:1023B000B0F5806F0AD25E4800F04EFCC1B25D48B5
:1023C0000468601C5B4A10605B48015501F0C4F86A
:1023D00010BD014657480068086057487047002004
:1023E00003E00021544A1154401CB0F5806FF8D32B
:1023F0000021504A1160704710B586B00446012193
:10240000082000F0C9FE0121880400F0D2FE4FF43C
:102410008060ADF8140003208DF8160018208DF8A8
:10242000170005A9454800F089F94FF40060ADF8A0
:10243000140004208DF8170005A9404800F07EF92B
:1024400027208DF8000003208DF8010002208DF870
:10245000020001208DF80300684600F0C6FC0194DC
:102460000020ADF80800ADF80A00ADF80C00ADF89A
:1024700010000C20ADF80E0001A9314800F0EFFA71
:10248000012240F225512E4800F081FB01212C4809
:1024900000F071FB06B010BD10B5024600200BE045
:1024A00000BF274B1B8803F04003002BF9D0135CBF
:1024B000234C241D2380401C8842F1D310BD10B54D
:1024C00001F02FF840F225511D4800F045FC80B185
:1024D0001C480068B0F5007F0BD2194800F0BCFB27
:1024E0001949184A1268885416480068401C154952
:1024F000086001F031F810BD01461248006808601C
:1025000011487047002003E000210F4A1154401C7D
:102510000C4909688842F7D900210A4A11607047BE
:10252000003801400008014058000020DA30002047
:10253000004400405C000020A2310020000C01405B
:102540000048004060000020A335002008B50121AC
:10255000082000F021FE4FF48070ADF8000010203C
:102560008DF8030003208DF8020069460D4800F045
:10257000E5F84FF480710B4800F08DF94FF40070CE
:10258000ADF8000010208DF8030003208DF8020044
:102590006946044800F0D2F84FF40071014800F099
:1025A0007AF908BD000C014008B50121042000F0B3
:1025B000F3FD4FF40060ADF8000028208DF8030013
:1025C0006946144800F0BAF808BD2DE9F047044602
:1025D0000F4690469946DDF820A0002514B900204A
:1025E000BDE8F08725462F7085F80180B9F8000016
:1025F0006880BAF80000A8800621284600F00CF890
:102600000646310AE971AE7128682060686860602A
:102610000820E5E70008014070B502460C46FF259A
:10262000FF2309E012F8010B80EA03010648405C31
:1026300080EA05030548455C2000A4F10106B4B218
:10264000F0D143EA052070BD607200086073000895
:1026500070B505460C4645F2555000F001FE28467F
:1026600000F001FE204600F001FE00F002FE00F046
:1026700005FE70BD10B500F0FCFD10BD10B50446A0
:10268000CC48844208D10121042000F09FFD0021A4
:10269000042000F09BFD46E0C748844208D1012198
:1026A000082000F093FD0021082000F08FFD3AE0A3
:1026B000C248844208D10121102000F087FD00218A
:1026C000102000F083FD2EE0BD48844208D1012196
:1026D000202000F07BFD0021202000F077FD22E08B
:1026E000B848844208D10121402000F06FFD00214C
:1026F000402000F06BFD16E0B348844208D1012170
:10270000802000F063FD0021802000F05FFD0AE0E2
:10271000AE48844207D10121801500F057FD002109
:10272000A01500F053FD10BD10B50121084600F0C2
:102730004DFD0021012000F049FD10BD2DE9F041C3
:10274000024600250026002000230024002791F8DF
:1027500003C00CF00F0591F803C00CF0100CBCF195
:10276000000F03D091F802C04CEA050591F800C0B3
:10277000BCF1000F31D0146800202BE04FF0010CA9
:102780000CFA00F3B1F800C00CEA03069E4220D117
:1027900083004FF00F0C0CFA03F7BC4305FA03FC5F
:1027A0004CEA040491F803C0BCF1280F06D14FF0A5
:1027B000010C0CFA00FCC2F814C00AE091F803C046
:1027C000BCF1480F05D14FF0010C0CFA00FCC2F827
:1027D00010C0401C0828D1D31460B1F800C0BCF16F
:1027E000FF0F34DD546800202EE000F1080C4FF09C
:1027F000010808FA0CF3B1F800C00CEA03069E4287
:1028000021D183004FF00F0C0CFA03F7BC4305FAFB
:1028100003FC4CEA040491F803C0BCF1280F05D175
:1028200000F1080C08FA0CF8C2F8148091F803C003
:10283000BCF1480F07D100F1080C4FF0010808FA6D
:102840000CF8C2F81080401C0828CED35460BDE8B4
:10285000F0814FF6FF710180022181700421C17067
:1028600070470246002093680B400BB1012000E046
:10287000002070470146886880B2704702460020F9
:10288000D3680B400BB1012000E0002070470146E7
:10289000C86880B2704701617047416170470AB1F2
:1028A000016100E041617047C16070474FF48032C0
:1028B0000A4382618161826182698269704702464E
:1028C0000020434B18684FF68073184040EA02100E
:1028D00008433F4B186070473E49C8617047F0B5E8
:1028E0000A46002300240021002500F00046B6F12E
:1028F000004F02D1364EF16901E0354E7168C0F3E8
:10290000034583B200F44016B6F5401F08D121F00C
:1029100070612F4E766826F070662D4F7E6012E053
:1029200000F48016B6F5801F06D1032606FA05F4DA
:10293000A14341F0706106E0460D360103FA06F648
:10294000B14341F0706122B1460D360103FA06F63B
:10295000314300F00046B6F1004F02D11C4EF16148
:1029600001E01B4E7160F0BD30B500228B071C0FDB
:102970000F2303FA04F2164B08338C1053F824305B
:102980009343134C08348D1044F8253023468C10A3
:1029900053F824308C07240F00FA04F423430C4C22
:1029A00008348D1044F8253030BD0A49DC31086008
:1029B0007047000000080140000C01400010014079
:1029C0000014014000180140001C0140002001409B
:1029D000000001400000204210B50446FB4884423C
:1029E00009D10121880300F0F1FB00214FF4804060
:1029F00000F0ECFB32E0F648844209D101214804A2
:102A000000F0F1FB00214FF4003000F0ECFB25E07A
:102A1000F048844209D10121880400F0E4FB002140
:102A20004FF4802000F0DFFB18E0EB48844209D12E
:102A30000121C80400F0D7FB00214FF4002000F072
:102A4000D2FB0BE0E548844208D10121080500F0E3
:102A5000CAFB00214FF4801000F0C5FB10BD2DE92A
:102A6000F04786B005460E460024A24600BFA146A8
:102A70000027B08900B100BF2F462C8A4CF6FF70AA
:102A80000440F08804432C82AC894EF6F3100440D5
:102A9000B08831890843718908430443AC81AC8A0A
:102AA0004FF6FF400440B0890443AC8201A800F017
:102AB00006FBC648874202D1DDF810A001E0DDF830
:102AC0000CA0A88900F4004040B10AEBCA0000EB5A
:102AD0000A1031684900B0FBF1F807E00AEBCA00C0
:102AE00000EB0A1031688900B0FBF1F86420B8FBF4
:102AF000F0F004012009642101FB1089A88900F489
:102B0000004040B1322000EBC900B0FBF1F000F012
:102B10000700044308E0322000EB09106421B0FBF9
:102B2000F1F000F00F0004432C8106B0BDE8F087FF
:102B30004FF41651016000218180C18001810C2178
:102B4000418100218181704710B502460020108A22
:102B50004FF2FF0318400B884C8823438C88234393
:102B6000CC8823431843108210BD0021018041808E
:102B70008180C180704721B1828942F400528281F4
:102B800004E082894DF6FF731A4082817047F0B5E8
:102B90000346002400260025002040F66A17B942AB
:102BA00000D100BF1846C1F3421401F01F060127EF
:102BB00007FA06F5012C01D10C3004E0022C01D1FA
:102BC000103000E014301AB107682F43076002E0AC
:102BD0000768AF430760F0BD1AB1838A0B43838255
:102BE00002E0838A8B4383827047028A4FF6F07338
:102BF0001A400282028A0A430282704782894FF297
:102C0000FF731A40828182890A438281704721B111
:102C1000828942F00202828104E082894FF6FD73CC
:102C20001A4082817047028A4FF6DF731A4002828F
:102C3000028A0A430282704721B1028A42F480422A
:102C4000028204E0028A4BF6FF731A400282704748
:102C5000C1F308028280704701468888C0F30800EB
:102C60007047818941F0010181817047028BD2B2A6
:102C70000283028B42EA012202837047028B02F434
:102C80007F420283028B0A430283704721B1828A0A
:102C900042F02002828204E0828A4FF6DF731A40FB
:102CA0008282704721B1828A42F01002828204E05F
:102CB000828A4FF6EF731A408282704721B1828A6E
:102CC00042F00802828204E0828A4FF6F7731A40CB
:102CD0008282704721B1828942F40042828103E0FE
:102CE0008289C2F30E028281704721B1828A42F446
:102CF0000062828204E0828A4FF2FF731A4082826D
:102D00007047828A4FF6FB731A408282828A0A4396
:102D10008282704721B1828A42F00202828204E0FC
:102D2000828A4FF6FD731A40828270470246002065
:102D3000B1F5007F00D100BF13880B400BB101201B
:102D400000E00020704701F40072B2F5007F00D16E
:102D500000BFCA430280704770B5024600240023BA
:102D60000025002040F66A16B14200D100BFC1F331
:102D7000421501F01F03012606FA03F3012D02D1CB
:102D80009689334006E0022D02D1168A334001E0D5
:102D9000968A33400C12012606FA04F41688344051
:102DA00013B10CB1012000E0002070BD10B500226D
:102DB000002340F66A14A14200D100BF0A12012488
:102DC0009440A3B2DC43048010BD000000380140F1
:102DD0000044004000480040004C004000500040CB
:102DE00031490143314A1160704770B50021002319
:102DF0000F22C47804B32D4C246804F4E064C4F5B5
:102E0000E064210AC1F10403CA40447804FA03F1E2
:102E10008478144021430901254C0678A155047893
:102E200004F01F050124AC4005786D11AD0005F1DB
:102E3000E025C5F8004109E0047804F01F050124ED
:102E4000AC401C4D0678761145F8264070BD1A4AF4
:102E50000A400243154B1B1F1A60704739B1134AD1
:102E6000121D12680243114B1B1D1A6006E00F4A27
:102E7000121D126882430D4B1B1D1A6070470428F7
:102E800008D14FF0E021096941F004014FF0E02240
:102E9000116107E04FF0E021096921F004014FF0D2
:102EA000E0221161704700000000FA050CED00E01F
:102EB00000E400E080E100E080FFFF1FDF480068E1
:102EC00040F00100DD49086008464068DC490840E0
:102ED000DA49486008460068DA490840D74908607E
:102EE0000846006820F4802008600846406820F406
:102EF000FE0048604FF41F0088607047CF490968A2
:102F000021F48031CD4A11601146096821F48021F5
:102F10001160B0F5803F03D0B0F5802F0ED106E0F0
:102F2000C649096841F48031C44A116007E0C349C9
:102F3000096841F4A021C14A116000E000BF00BF50
:102F4000704710B501460022002300204A11012AD3
:102F500002D1BA4C236806E0022A02D1B74C236A98
:102F600001E0B64C636A01F01F02012494401C404A
:102F70000CB1012000E0002010BD38B50020009009
:102F80000024002500BF3120FFF7DBFF0546009835
:102F9000401C00900098B0F5A06F01D0002DF2D039
:102FA0003120FFF7CEFF08B1012400E000242046C5
:102FB00038BD01460020A14A106820F0F80040EA20
:102FC000C10010607047A0490860704702460020A9
:102FD0009A4B586820F47C1042EA01031843974B3F
:102FE0005860704798490866704701460020934A28
:102FF000506820F003000843506070478F484068D5
:1030000000F00C007047014600208C4A506820F008
:10301000F00008435060704701460020874A50681E
:1030200020F4E06008435060704701460020834A66
:10303000506820F4605040EAC1005060704729B1E8
:103040007E4A527A02437D4B5A7204E07B4A527A9E
:1030500082437A4B5A7270477B49D8310860704777
:1030600001460020754A506820F4404008435060F3
:1030700070470021714A20321170704A82F8201086
:10308000012802D004280AD104E001216B4A203231
:10309000117005E00521694A2032117000E000BF7F
:1030A00000BF70476949086070476449096A014375
:1030B000624A11627047654944390860704730B50B
:1030C00000210022002400235C4D6D6805F00C01F6
:1030D00021B1042905D0082923D105E05C4D056004
:1030E00022E05B4D05601FE0544D6D6805F47012E1
:1030F000524D6D6805F48034022505EB92421CB9EF
:10310000544D554305600BE04C4D6D6805F400359A
:103110001DB1504D5543056002E04D4D55430560CE
:1031200002E04B4D056000BF00BF444D6D6805F0E7
:10313000F0010909484D6B5C0568DD4045603F4D75
:103140006D6805F4E061090A434D6B5C4568DD403C
:1031500085603A4D6D6805F46051C90A3E4D6B5C5F
:103160004568DD40C560354D6D6805F44041890B0B
:103170003A4D6B5CC568B5FBF3F5056130BD29B10F
:103180002E4A526902432D4B5A6104E02B4A526980
:1031900082432A4B5A61704729B1284A92690243F7
:1031A000264B9A6104E0254A92698243234B9A6137
:1031B000704729B1214AD2690243204BDA6104E009
:1031C0001E4AD26982431D4BDA61704729B11B4AFE
:1031D000D2680243194BDA6004E0184AD26882438D
:1031E000164BDA60704729B1144A12690243134B37
:1031F0001A6104E0114A12698243104B1A61704748
:1032000012494039086070470F49C86470470B493C
:10321000C87170470948406A40F0807007494862A9
:10322000704701460020054A92680A400AB1012011
:1032300000E000207047014988727047001002408A
:103240000000FFF8FFFFF6FE000042428004424209
:1032500000127A0000093D00640000207400002084
:103260000E49086070470D49486070470B498860F7
:1032700070474AF6AA200949086070474CF6CC40CE
:1032800006490860704701460020044AD2680A4097
:103290000AB1012000E0002070470000003000402B
:1032A0007CB5002514E06946284601F0DBFF0646A0
:1032B00066B9F84850F8254044B1012C06D0D4E94D
:1032C000020100EB810060640198A064681CC5B233
:1032D0003F2DE8D97CBD002400BF02E0282002F089
:1032E000CBF8ED4800780028F8D0EC48006864215D
:1032F000B0FBF1F0E94908600846006828B90020F1
:10330000E7490870FF2001F0EFFF00BF02F010FD59
:103310000446E4480068E44908600020E149086088
:10332000204602F009FDE0480068DC490968B0FB6E
:10333000F1F0C0F16400DA49087002F097FCFFF781
:10334000AFFF142002F098F8E0E700B587B0032043
:1033500000218022D54BCDE90132CDE903104FF693
:10336000FE703E23D24A0090AFF2950001F093FD2B
:1033700006AAD0A13E2001F0F7FE07B000BD002450
:1033800000BF00BF02F0D4FC0446C6480068401CE1
:10339000C4490860204602F0CFFC02F066FCF1E769
:1033A00000B587B0032000218022C64BCDE9013251
:1033B000CDE903104FF6FF703F23C34A0090AFF2F0
:1033C000410001F068FD06AAC0A13F2001F0CCFE3B
:1033D00007B000BD04E0002200F8012B4A1E91B2A4
:1033E0000029F8D1704770B5C821BC48FFF7F2FF3B
:1033F00000230FE0581C85B203EB8300B74901EBB3
:10340000800405EB850001EB8006002020706660DB
:10341000581C83B2092BEDD303EB8300AF4901EBBA
:1034200080040020207060600846AD49086070BDCF
:1034300070B54FF47C71AB48FFF7CCFF4FF480714F
:103440009448FFF7C7FF002413E0601CC5B2C4EB2B
:10345000C40000EB4000A34901EB8003C5EBC500AD
:1034600000EB400001EB80065E619FA0D864601C09
:10347000C4B20B2CE9D3C4EBC40000EB4000994963
:1034800001EB80030020586197A0D8640020974981
:10349000086094489649086070BD0021954A1170F3
:1034A000002004E00021944A1154411CC8B20828AD
:1034B000F8D30021914A1170914A1170914A11601C
:1034C000914A116070470020904908609049087047
:1034D00090490870904908709049087090490860B8
:1034E00070490860704908606C4908606A49087052
:1034F000704710B502F0B2FBFFF7E5FFFFF7CDFF15
:10350000FFF796FFFFF76FFF00F0ECFE01F0E3F925
:10351000FFF746FFFFF719FF02F034FB02F0A2FBB2
:1035200010BD7E480078012808D179480078FF282E
:1035300004D277480078401C754908707047794973
:103540006C4A1278885C6C49095C764A515C01EBE4
:10355000C0016B4A1170704710B500246F480078A5
:10356000012830D102F0E4FB04466948007820B11C
:1035700067480078401E6649087065480078F8B9C9
:1035800064480078E0B9FFF7DAFF42485C490978FF
:1035900050F821005B49086059480078574909787C
:1035A00088420DD057480068806B401C5549096817
:1035B00088635B480068401C5949086002F0D7FBEB
:1035C000204602F0B9FB10BD10B500245348007826
:1035D000012811D102F0ACFB04464D48007840B9F7
:1035E0004C480078FF2804D24A480078401C4949DA
:1035F0000870204602F0A0FB10BD10B5002402F0B8
:1036000097FB044642480078F8B942480078E0B990
:10361000FFF795FF1F483A49097850F821003949CA
:103620000860374800783549097888420DD0354818
:103630000068806B401C334909688863384800681B
:10364000401C3749086002F08BFB204602F074FBF7
:1036500010BD10B500243148007801286FD102F068
:1036600067FB04462B48007880B12A480078401E4A
:10367000284908700846007848B92548007838B9C4
:10368000204602F059FBFFF7B8FF58E054E04FE046
:103690004AE00000BC3C0020900000208800002090
:1036A00084000020A00000208C000020BC380020F6
:1036B000B83A002075432F4F532D49492053746168
:1036C00074000000BC3A0020B83C002075432F4F26
:1036D000532D49492049646C65000000A43700203F
:1036E0007C000020BC3D00203F000000B000002016
:1036F000A8000020950000209600002093000020E4
:1037000094000020AC000020A4000020BC00002099
:1037100091000020920000209F0000209E000020C9
:103720007800002060740008204602F005FB06E0E7
:10373000204602F001FB02E0204602F0FDFA10BD37
:1037400010B5EB48007890B9FFF7F9FEE94800782A
:10375000E9490870E948E749097850F82100E84943
:10376000086008460068E749086002F0E8FA10BD02
:1037700010B50024022001F07FFE02F0D9FA0446C1
:103780000020E1490860204602F0D6FA142001F03A
:1037900073FE02F0CDFA0446DB480068DB4908609E
:1037A0000120DB490870204602F0C6FA10BD70B552
:1037B000002602F0ABFA02F0BBFA0646D5480068D4
:1037C000401CD4490860304602F0B6FAC848007878
:1037D000012853D1D048007820B1012804D0022814
:1037E00009D103E001250BE0002509E001250120B6
:1037F000C949087004E001250020C749087000BFCE
:1038000000BF05B970BDC548046833E002F090FA06
:103810000646E06A50B3E06A401EE062E06A28BBF8
:1038200094F8300000F0370040B114F8300F00F089
:10383000C800207001206070303C02E0002084F855
:10384000310094F8300000F0080078B93434A078E2
:10385000B34909780843B24908702078B149085C37
:103860006178084314F83419AE4A505464693046FC
:1038700002F062FA94F832003F28C7D100BFC1E7D6
:1038800040F223107047704710B590F8342001F1D2
:103890000B039B5C90F83540A34301F10B04A35448
:1038A00023469B5C23B98B7A90F83640A3438B72F6
:1038B00010BD2DE9F04F05460F4690469946A87A6F
:1038C00099490E5C05F10B00805D11F800B00BEB1F
:1038D000C60000F0FF0A894850F82A400020203432
:1038E000E0602760207C20EA0800207484F81190B2
:1038F000207C203C00F0080068B994F83600884924
:1039000009780843864908708648805D94F8351028
:1039100008438449885529462046FFF7B5FF50469D
:10392000BDE8F08F10B5774A1268D061754A126809
:1039300092F8343000F10B02D25C724B1B6893F8A2
:1039400035301A436F4B1B6893F8344000F10B037A
:103950001A55827A6B4B1B6893F836301A43827281
:10396000684A126892F834106E4A525C654B1B68C4
:1039700093F835309A436B4B5A541A46525C42B90D
:10398000604A126892F83630654A12789A43644B5E
:103990001A7010BD014600228A72002005E0002343
:1039A00001F10B021354421CD0B20828F7D3704720
:1039B00005E011F8013B00F8013B531E9AB2002AC2
:1039C000F7D170470146002002E0491C421CD0B2EA
:1039D0000A78002AF9D170472DE9F84F05460F46BD
:1039E00090469946DDE90AAB0020009002F0A0F96C
:1039F00000904E480468002C75D0183454F8040C1C
:103A00004A490860009802F097F944F8187CA576B6
:103A1000002020766076606144F814BC44F80CAC59
:103A200044F8108C0C9824F8080C24F8069C00200C
:103A3000E077E810207705F00700E076217F01208D
:103A40008840A077E17E0120884060770020606098
:103A5000E060A0602062A0626062E0622063AFF27A
:103A600078306063183C002606E0002104F1500025
:103A700040F82610701CC6B2002EF6D0204602F088
:103A800044F9204602F0EFF802F052F900901B488A
:103A900040F825402148006860610020A0611F486F
:103AA000006810B11D48006884611C48046034340B
:103AB000A0781B49097808431949087020781949EA
:103AC000085C6178084314F83419164A50541848B1
:103AD0000078401C16490870009802F02DF900206B
:103AE000BDE8F88FFFE7009802F026F94220F7E7DB
:103AF0009E0000209400002093000020BC3C002089
:103B0000AC000020A4000020A000002088000020BD
:103B100090000020BC000020B4000020B000002075
:103B2000950000209600002060740008A800002086
:103B30009F0000202DE9F05F04460F4691461E4687
:103B40004FF0000B2078052804D0012030700020B1
:103B5000BDE8F09F09F0800ABAF1000F04D029F007
:103B600080094FF0010801E04FF00008002030709C
:103B700002F0DEF88346B9F1000F2CD0B9F1010F45
:103B80003BD0B9F1020F03D0B9F1030F46D111E0D8
:103B9000208900EA0705BD4206D1B8F1010F05D121
:103BA0002089A843208101E070203070584602F03F
:103BB000C3F83AE0208900EA070535B1B8F1010FF2
:103BC00005D12089A843208101E07020307058463B
:103BD00002F0B2F829E0208927EA0005BD4206D1AB
:103BE000B8F1010F05D120892843208101E0702020
:103BF0003070584602F0A0F817E0208927EA000547
:103C000035B1B8F1010F05D120892843208101E0A9
:103C100070203070584602F08FF806E0584602F0E7
:103C20008BF800256F20307000BF00BF28468FE75B
:103C30002DE9F04106460D460027FA48007820B1EC
:103C4000102028700020BDE8F08102F071F80746CE
:103C5000F548046884B100684068F34908600520AD
:103C60002070268100206060F0A0E060384602F0FD
:103C700063F80020287004E0384602F05DF87220F6
:103C800028702046DFE730B501464A6808682AB93F
:103C9000CC68606028B10025456002E0106000B18A
:103CA00042608B6800255D6230BDF0B506460F4668
:103CB000B4680020283460602780207A00F0DF009C
:103CC000207200206072207A283C88B93434A078B1
:103CD000D74909780843D64908702078D549085C47
:103CE0006178084314F83419D24A5054012500E091
:103CF00000253046FFF7C7FF2846F0BD2DE9F04705
:103D00000446894615464FF0000AC648007820B19F
:103D10000F2028702046BDE8F0872078052803D0C2
:103D2000012028702046F6E702F002F8824660681B
:103D300008B1012700E00027B9F1000F03D0B9F165
:103D4000010F3CD119E08FB9B8A0E06000202070CD
:103D5000B5480068606000202081B3480460504688
:103D600001F0EAFF00202870002605E0504601F02F
:103D7000E3FF49202870264628E0D4F8048005E0B7
:103D800000214046FFF791FFD8F80080B8F1000FFE
:103D9000F6D1A6A0E06000202070A3480068606013
:103DA00000202081A0480460504601F0C5FF012F8B
:103DB00001D1FFF722FC00202870002606E05046C3
:103DC00001F0BAFF07202870264600BF00BF30462A
:103DD000A1E72DE9F04105460E461446002791481B
:103DE000007820B1112020700020BDE8F08101F0A2
:103DF0009FFF07462878052806D0384601F09CFF2B
:103E0000012020700020F0E7E86830603068FFF79C
:103E1000D9FD8046384601F08FFF002020704046D3
:103E2000E3E72DE9F04105460E46144600277D489C
:103E3000007818B112202070BDE8F08101F078FF01
:103E400007462878052805D0384601F075FF01207F
:103E50002070F1E7EE60384601F06EFF0020207020
:103E600000BFE9E7F0B51446059E734F3F6897F829
:103E7000307047F02007DFF8C0C1DCF800C08CF8D4
:103E800030700027DFF8B0C1DCF800C08CF831706A
:103E9000694F3F68FE62684F3F6879620C828B749D
:103EA000654F3F688F6047680F6000274F60C860AC
:103EB000456805B1696041605F4F3F6897F83420FD
:103EC0005C4FBF5CDFF870C1DCF800C09CF835C007
:103ED00027EA0C07DFF85CC10CF802706746BF5C8C
:103EE0005FB9554F3F6897F836C0514F3F7827EA82
:103EF0000C07DFF83CC18CF80070F0BD2DE9F04FE5
:103F000089B005460F4691469A46129E00200290BF
:103F10004448007828B102203070002009B0BDE884
:103F2000F08F4648007818B10D2030700020F5E77A
:103F30002878052803D0012030700020EEE709F032
:103F4000800BBBF1000F04D009F07F094FF001088E
:103F500001E04FF0000801F0EBFE0290B9F1000F14
:103F60004AD0B9F1010F78D0B9F1020F03D0B9F1FD
:103F7000030F71D120E0288900EA0704BC420FD169
:103F8000B8F1010F02D12889A04328812A4800688E
:103F90000485029801F0D0FE002030702046BDE775
:103FA0004B463A4604A92846CDF800A0FFF75AFF31
:103FB000029801F0C1FE78E0288900EA07047CB18C
:103FC000B8F1010F02D12889A04328811A4800685E
:103FD0000485029801F0B0FE0020307020469DE775
:103FE0004B463A4604A92846CDF800A0FFF73AFF11
:103FF000029801F0A1FE58E0288927EA0004BC429B
:104000001ED1B8F1010F02D12889204328810A4826
:1040100000680485029801F08FFE00203070204671
:104020007CE71AE091000020800000203F000000A3
:104030009500002096000020A4000020920000209F
:104040004B463A4604A92846CDF800A0FFF70AFFE0
:10405000029801F071FE28E01FE0288927EA000499
:104060007CB1B8F1010F02D1288920432881B148E1
:1040700000680485029801F05FFE00203070204641
:104080004CE74B463A4604A92846CDF800A0FFF776
:10409000E9FE029801F050FE07E0029801F04CFEA4
:1040A00000246F203070204638E700BFFFF7A5FAE4
:1040B00001F03EFE02909F48006890F8310020B366
:1040C0009C48006890F831000390002099490968E5
:1040D00081F8310004A8FFF7D6FD00209549096852
:1040E00081F83000029801F027FE0024039801288F
:1040F00005D0022802D10E20307003E000BF0A2054
:10410000307000BF00BF204608E78A480068048D71
:10411000B8F1010F1ED1B9F1000F0ED0B9F1010FA6
:104120000CD0B9F1020F03D0B9F1030F0AD100E0AE
:1041300000BF2889A04328810BE000BF28892043C5
:10414000288106E0029801F0F7FD6F203070002012
:10415000E4E600BF029801F0EFFD00203070204639
:10416000DCE670B5002501F0E3FD05467148006806
:10417000048D284601F0E0FD204670BD2DE9FC5F6E
:104180000446894692461E46002000902078052865
:1041900004D0012030700020BDE8FC9F01F0C8FD74
:1041A0000090BAF1000F03D0BAF1010F0AD104E078
:1041B000208920EA090020810BE0208940EA0900DB
:1041C000208106E0009801F0B7FD712030700020DA
:1041D000E2E700BF4FF0000B656855E0A87C40B3F4
:1041E000012838D0022802D0032844D111E02089C8
:1041F000298A00EA0107288AB84209D139462846A7
:10420000FFF753FD8046B8F1010F01D14FF0010BCC
:1042100038E02089298A00EA01074FB1394628464B
:10422000FFF743FD8046B8F1010F01D14FF0010BBC
:1042300028E0288A218920EA0107288AB84209D182
:1042400039462846FFF731FD8046B8F1010F01D10C
:104250004FF0010B16E0288A218920EA01074FB1AF
:1042600039462846FFF721FD8046B8F1010F01D1FC
:104270004FF0010B06E0009801F05EFD6F203070FA
:10428000002089E700BF2D68002DA7D1009801F01C
:1042900053FDBBF1010F01D1FFF7AFF901F048FD6C
:1042A000009020890190009801F046FD00203070B8
:1042B000019871E72DE9F04104460D46002720786A
:1042C000052804D0012028700020BDE8F08101F00D
:1042D0002FFD07462689384601F02EFD0020287064
:1042E0003046F2E72DE9F04150211348FFF772F80C
:1042F00000250EE0681C86B20F4800EB051400EBA9
:104300000617002020706760AFF2E020E060681CB4
:1043100085B2042DEED3084800EB05140020207070
:104320006060AFF2F820E060034804490860BDE82F
:10433000F0810000A40000206C38002080000020E4
:104340002DE9F04106460D464FF00008307802286E
:1043500004D0012028700020BDE8F08101F0E8FCC5
:1043600080467468E08A78B12169081D20610F6871
:10437000E08A401EE082A1682069884201D160681D
:1043800020610020287002E01F202870002740468E
:1043900001F0D2FC3846DFE72DE9F04106460F4632
:1043A0004FF00008F748007810B10020BDE8F08118
:1043B00001F0BEFC8046F4480568006820B1F24870
:1043C00000684068F0490860404601F0B5FC3DB324
:1043D00001F0AEFC8046ED480468C4B10068006896
:1043E000EA490860404601F0A7FC666006EB8700DA
:1043F000A060E6602661A7820020E082022028708B
:10440000002028816C602846FFF7C4FA08E0DE48E7
:1044100000686860DC480560404601F08DFC0025BE
:104420002846C3E72DE9F0470446894615464FF074
:10443000000A2078022804D0012028702046BDE818
:10444000F087D048007818B10F2028702046F6E792
:1044500001F06EFC8246A07A10B14FF0010801E035
:104460004FF00008B9F1000F03D0B9F1010F45D1A9
:104470001FE0B8F1000F15D16668C44800683060CD
:10448000C248066000202070BF48006860600020BD
:104490002081BD480460504601F04EFC0020287089
:1044A000002705E0504601F047FC492028702746C8
:1044B0002BE005E00023042219462046FFF7F9F916
:1044C000A07A0028F6D16668B04800683060AF482E
:1044D000066000202070AC480068606000202081E9
:1044E000A9480460504601F027FCB8F1010F01D142
:1044F000FFF783F800202870002706E0504601F0FF
:104500001BFC07202870274600BF00BF384696E7EF
:1045100070B50546002601F00BFC06466C68606825
:10452000E060606820610020E082304601F004FC19
:10453000002070BD2DE9F0470746884615464FF02C
:1045400000093878022804D0012028700020BDE836
:10455000F0878C48007818B1022028700020F6E718
:104560008B48007818B10D2028700020EFE701F08B
:10457000DFFB81467C68E08A98B12169081D2061D3
:104580000E68E08A401EE082A1682069884201D15D
:1045900060682061484601F0CFFB0020287030465B
:1045A000D5E77C48006890F8300040F00400794975
:1045B000096881F8300000207649096881F83100E7
:1045C00074480068C0F82C803846FFF7ABF94846BD
:1045D00001F0B2FBFFF711F801F0AAFB81466D482C
:1045E000006890F8310020B101280DD002280AD1CE
:1045F00005E068480068066A002028700DE0002683
:104600000E20287009E000BF394662480068FFF7B5
:104610003BF900260A20287000BF00BF00205D493A
:10462000096881F830005B49096881F8310059490F
:104630000968C861574909680862484601F07CFB6F
:10464000304684E72DE9F04104460F4615464FF009
:1046500000082078022804D0012028700020BDE83E
:10466000F08101F065FB8046A07A20B300267FB17F
:10467000012F0CD107E00223042200212046FFF77E
:1046800018F9701CC6B2A07A0028F4D109E000BF66
:104690000223042200212046FFF70BF9701CC6B24A
:1046A00000BF00BF404601F047FBFEF7A6FF0E200B
:1046B00028703046D3E7404601F03EFB00202870CA
:1046C00000BFCCE72DE9F04105460E4600272878CB
:1046D000022802D00120BDE8F08101F029FB074645
:1046E000A87A60B10023042231462846FFF7E1F89A
:1046F000384601F021FBFEF780FF0020EBE76C68F5
:10470000E08AA18A884204DB384601F015FB1E20AE
:10471000E1E7E168081DE0600E60E08A401CE0828D
:10472000D4E90210884201D16068E060384601F0A7
:1047300003FB0020CFE72DE9F04105460E46002798
:104740002878022802D00120BDE8F08101F0F0FABB
:104750000746A87A60B10023042231462846FFF7B5
:10476000A8F8384601F0E8FAFEF747FF0020EBE72B
:104770006C68E08AA18A88420EDB384601F0DCFAD8
:104780001E20E1E7910000207C000020B8000020FE
:1047900092000020A400002061682069884201D1B5
:1047A000A06820612069001F206120690660E08AFE
:1047B000401CE082384601F0BFFA0020C4E72DE932
:1047C000F04105460F4616464FF0000828780228AB
:1047D00002D00120BDE8F08101F0AAFA8046A87A53
:1047E000E8B106F0010050B105E00023042239468B
:1047F0002846FFF75EF8A87A0028F6D105E00023E6
:10480000042239462846FFF754F8404601F094FA4E
:1048100006F0040008B9FEF7F0FE0020DAE76C6845
:10482000E08AA18A884204DB404601F085FA1E2016
:10483000D0E706F0020058B161682069884201D1D2
:10484000A06820612069001F20612069076009E0DD
:10485000E168081DE0600F60D4E90210884201D1D0
:104860006068E060E08A401CE082404601F064FA43
:104870000020AFE72DE9F04705460C464FF0000A4F
:104880002878022802D00120BDE8F08701F050FA14
:104890008246A87A207405F10B0804F10809002764
:1048A00005E018F8010B09F8010B781CC7B2082FB6
:1048B000F7D36E68F08A18B130690068206001E0B3
:1048C00000202060F08AA080B08AE080504601F08D
:1048D00033FA0020D8E72DE9F04178211048FEF79F
:1048E00079FD00240DE0601C86B204EB44000C4905
:1048F00001EBC00506EB460001EBC0072F60601C12
:1049000084B2042CEFD304EB4400054901EBC0054D
:1049100000202860084603490860BDE8F0810000D7
:10492000AC410020B800002070B504460026207875
:10493000032801D0002070BD01F0FAF90646258950
:1049400015B12089401E2081304601F0F5F9284636
:10495000F1E770B505460026D248007808B100207E
:1049600070BD01F0E5F90646CF480468006820B143
:10497000CD4800684068CC490860304601F0DCF959
:104980003CB1032020702581002060602046FFF7A5
:1049900001F82046E4E72DE9F0470446884615462D
:1049A0004FF000092078032804D001202870204609
:1049B000BDE8F087BB48007818B10F20287020466A
:1049C000F6E701F0B5F98146A07A08B1012700E0C9
:1049D0000027B8F1000F03D0B8F1010F35D117E06F
:1049E0007FB900202070B0480068606000202081FE
:1049F000AD480460484601F09FF900202870002669
:104A000005E0484601F098F949202870264623E041
:104A100005E00023012219462046FEF74AFFA07A4E
:104A20000028F6D12070A048006860600020208136
:104A30009D480460484601F07FF9012F01D1FEF73F
:104A4000DCFD00202870002606E0484601F074F9DD
:104A500007202870264600BF00BF3046A8E72DE992
:104A6000F04105460E46144600272878032803D057
:104A700001202070BDE8F0818A48007810B1022042
:104A80002070F7E78948007810B10D202070F1E719
:104A900001F04EF90746288940B12889401E288137
:104AA000384601F049F900202070E3E780480068AB
:104AB00090F8300040F001007D49096881F830002D
:104AC00000207B49096881F8310079480068C66296
:104AD0002846FEF727FF384601F02EF9FEF78DFD38
:104AE00001F026F907467248006890F8310020B1BD
:104AF000012809D0022806D102E0002020700BE036
:104B00000E20207008E000BF294669480068FEF7C3
:104B1000BBFE0A20207000BF00BF00206449096866
:104B200081F830006249096881F8310060490968FC
:104B3000C861384601F000F900BF9BE72DE9F0415C
:104B400004460F4615464FF000082078032804D08D
:104B5000012028700020BDE8F08101F0E9F88046CE
:104B6000A07A20B300267FB1012F0CD107E00223E9
:104B7000012200212046FEF79CFE701CC6B2A07ADE
:104B80000028F4D109E000BF0223012200212046C1
:104B9000FEF78FFE701CC6B200BF00BF404601F09A
:104BA000CBF8FEF72AFD0E2028703046D3E74046AA
:104BB00001F0C2F80020287000BFCCE770B50446B1
:104BC00000252078032801D0012070BD01F0B0F845
:104BD0000546A07A60B10023012219462046FEF75F
:104BE00068FE284601F0A8F8FEF707FD0020ECE774
:104BF00020894FF6FF71884207D22089401C20810E
:104C0000284601F099F80020DFE7284601F094F8E3
:104C10003320DAE72DE9F04704460D464FF000094E
:104C20002078032802D00120BDE8F08701F080F849
:104C30008146A07AA87204F10B0705F1020800264C
:104C400005E017F8010B08F8010B701CC6B2082E1E
:104C5000F7D320892880484601F06EF80020E3E76A
:104C60002DE9F04104460E4615460027207803281A
:104C700003D001202870BDE8F08101F059F8074603
:104C800000202870208908B1268105E0A07A08B9A3
:104C9000268101E049202870384601F04DF800BF18
:104CA000E9E70000910000207C0000209200002035
:104CB000A40000202DE9FF5F814688460020009077
:104CC00001F036F80090F94850F8280030B100980B
:104CD00001F032F8282004B0BDE8F09FB9F1FF0FD1
:104CE00003D1F348006890F83290F04850F829401A
:104CF00024B9009801F020F82920ECE7012C04D118
:104D0000009801F019F84320E5E74FEAE80708F0BA
:104D1000070003900120B84000F0FF0A012103982A
:104D2000814001F0FF0B0020E04941F829000846CE
:104D300040F8284014F8346FA07802906078343C32
:104D40000190DC48815D01980140D1B1D948805D76
:104D500001998843D74988550846805D28B9D648C7
:104D6000007802998843D4490870D348007840EA13
:104D70000A00D1490870CF48C05D40EA0B00CD4918
:104D8000C855E569D5B105F10B00805D01998843EF
:104D900005F10B0188550846805D18B9A87A02997B
:104DA0008843A872A87A40EA0A00A87205F10B00AD
:104DB000C05D40EA0B0005F10B01C85584F8328054
:104DC00084F83470039884F8330084F836A084F8AB
:104DD00035B0009800F0B0FFB8480078012801D144
:104DE000FEF70BFC002076E72DE9FE4F06460F4646
:104DF00090461C464FF0000900F09AFF8146B048EB
:104E0000007828B1484600F097FF3C20BDE8FE8FAF
:104E1000A64850F8240060BB0120A44941F82400B2
:104E2000484600F089FF002342463946304600F0EC
:104E30001EFF824600200090019003460246514624
:104E400002902046FEF7C8FD054635B99B4800781C
:104E500001280CD1FEF7D1FB09E000F069FF814683
:104E60000020924941F82400484600F065FF28469A
:104E7000CCE7484600F060FF2820C7E702F00103B6
:104E800043B102F002032BB102E0491E002308C027
:104E90000029FAD170472DE9F04F85B081468A4646
:104EA00093461C46DDE90F78129D0020039000F028
:104EB0003FFF03908248007830B1039800F03CFF38
:104EC0003C2005B0BDE8F08F784850F8240088BB3E
:104ED0000120764941F82400039800F02DFF2A466E
:104EE00041463846FFF7CAFF2B465A4651464846C8
:104EF00000F0BDFE04901198CDE9008002953A467D
:104F000020460E9B0499FEF767FD064636B96B48AE
:104F1000007801280CD1FEF770FB09E000F008FFD3
:104F200003900020614941F82400039800F004FF39
:104F30003046C6E7FFE7039800F0FEFE2820C0E7F2
:104F40002DE9F041054600275D48007810B140206A
:104F5000BDE8F0813F2D01D13E20F9E700F0E8FEE9
:104F60000746FF2D03D15248006890F832504F4851
:104F700050F8254024B9384600F0DEFE4320E7E72C
:104F8000012C04D1384600F0D7FE3D20E0E714F8AC
:104F9000340F4849085C617888432178454A505469
:104FA00014F834091146085C30B994F836104248B8
:104FB0000078884340490870E06918B12046E169EB
:104FC000FEF762FC666A16B13046FEF75CFE002012
:104FD000E06284F8300084F831003A480078FF2815
:104FE00004D238480078401C36490870384600F032
:104FF000A3FEFEF748FC00F09BFE07463148007810
:1050000020B130480078401E2E490870204600F03C
:105010002BFE2D480078401E2B49087000202349A4
:1050200041F82500A06930B90020616988612749ED
:105030006069086005E0D4E905014861D4E905101C
:1050400088612348006860612148046021A0E06411
:10505000384600F071FE19480078012801D1FEF7AA
:10506000CCFA002074E72DE9F041044600273F2CDC
:1050700002D13E20BDE8F081FF2C0BD100F058FE9C
:1050800007460B48006890F83760384600F054FE39
:105090003046EFE700F04CFE0746044850F8245035
:1050A000D5B9384600F048FE4320E3E7BC3C002079
:1050B000A400002096000020950000209E00002003
:1050C00091000020920000209F000020B0000020EE
:1050D000A80000203F000000012D04D1384600F058
:1050E0002BFE3D20C6E73F2085F83700384600F00C
:1050F00023FE0020BEE72DE9F04706460F46144682
:105100004FF00008D648007820B111202070002010
:10511000BDE8F08700F00CFE8046FF2E03D1D14899
:10512000006890F83260D04850F8265035B94046B3
:1051300000F002FE432020700020E9E7012D06D197
:10514000404600F0F9FD432020700020E0E7E86CC5
:1051500038603868FEF736FC8146404600F0ECFDCA
:10516000002020704846D3E72DE9F04106460F465F
:1051700014464FF00008BA48007818B11220207089
:10518000BDE8F08100F0D4FD8046FF2E03D1B54884
:10519000006890F83260B44850F826502DB9404667
:1051A00000F0CAFD43202070EAE7012D05D14046FA
:1051B00000F0C2FD43202070E2E7EF64404600F0BB
:1051C000BBFD0020207000BFDAE770B50546002661
:1051D00000F0AEFD0646A44850F8254024B93046FC
:1051E00000F0AAFD462070BD012C04D1304600F02D
:1051F000A3FD4320F7E794F8300000F0080060B307
:1052000014F8300F00F0F700207014F83009F8B9E6
:10521000E06AC8B93434A0789449097808439349BE
:10522000087020789249085C6178084314F83419B2
:105230008F4A5054304600F07FFD8E480078012898
:1052400009D1FEF7DAF906E0304600F075FD02E01C
:10525000304600F071FD0020C5E7304600F06CFDDF
:105260004420C0E72DE9F04707460D464FF0000AFD
:1052700000202860686000F05BFD8246FF2F03D1AC
:105280007848006890F83270774850F827402CB979
:10529000504600F051FD4320BDE8F087012C04D1B9
:1052A000504600F049FD4320F6E7207C00F0010065
:1052B00020B9504600F040FD4520EDE70026D4F827
:1052C0000C90D4F80880504600F036FD00E0761CC3
:1052D00058F8041B0029FAD0B0002860A9EB06009A
:1052E000800068600020D7E72DE9F04105464FF0C7
:1052F000000800F01DFD8046FF2D05D159480068CB
:1053000090F83250012608E05648006890F83200C4
:10531000A84201D1012600E00026534850F825405C
:105320002CB9404600F008FD4820BDE8F081012C72
:1053300004D1404600F000FD4320F6E794F83470B5
:105340004B48C05D94F8351088434949C855084614
:10535000C05D30B994F8361044480078884343491A
:10536000087094F8300040F0080084F8300040469F
:1053700000F0E2FC012E01D1FEF73FF90020D4E756
:105380002DE9F04105460E46002700F0D1FC074606
:10539000FF2D03D13348006890F83250324850F85E
:1053A00025402CB9384600F0C7FC2920BDE8F08123
:1053B000012C04D1384600F0BFFC4320F6E754220C
:1053C00021463046FEF7F4FA384600F0B5FC0020DE
:1053D000ECE72DE9F04704460E4617464FF000096A
:1053E00000F0A6FC8146FF2C02D11E48056802E0B1
:1053F0001D4850F8245005F1500050F826804846CA
:1054000000F09AFC002038704046BDE8F0872DE996
:10541000F04704460E46174698464FF0000900F044
:1054200087FC8146FF2C02D10E48056802E00E4839
:1054300050F8245005F1500040F82670484600F01E
:105440007BFC002088F80000BDE8F08710B5054817
:10545000006800F06AFCFF20FFF772FD10BD00003D
:1054600091000020A4000020BC3C002095000020FA
:10547000960000209E00002070B505460026634877
:10548000007800B170BD6248007800B1FAE71DB342
:1054900000F04EFC06465F48006890F834405E48D5
:1054A000005D5C49096891F8351088435A490855F0
:1054B0000846005D40B95748006890F836105748D4
:1054C000007888435549087052480068C5623046E4
:1054D00000F032FCFEF791F800BFD3E72DE9F04170
:1054E00004460D4616461F464848007810B1552020
:1054F000BDE8F0814648007808B13220F8E7B81CD2
:10550000C82148434FF47A71B0FBF1F14FF4616068
:105510006043C5EB051200EB8200304400EBC00293
:1055200002EB001001EBC0084046FFF7A5FF00208A
:10553000DEE770B5054600263F2D01D32A2070BD59
:1055400000F0F6FB0646364850F8254024B93046B0
:1055500000F0F2FB4320F2E7012C04D1304600F0CA
:10556000EBFB4320EBE7E06A20B9304600F0E4FBB8
:105570005020E4E70020E06294F8300000F03700AB
:1055800040B114F8300F20F0370020700120607017
:10559000303C02E0002084F8310094F8300000F044
:1055A0000800A8B93434A0781C49097808431B497D
:1055B000087020781849085C6178084314F8341999
:1055C000154A5054304600F0B7FBFEF716F802E0DB
:1055D000304600F0B1FB0020B1E770B5002500F0C7
:1055E000A7FB05460F480468284600F0A5FB2046A7
:1055F00070BD70B50446002500F09AFB05460948C9
:105600000460284600F098FB70BD00009100002067
:1056100092000020A40000209600002095000020A9
:10562000BC3C0020BC000020FC48006808B90020F9
:105630007047FA480168F94AC86810600020C860DD
:105640000861F7480088401CF54A1080F54800883A
:10565000401EF44A10800846EAE72DE9F05F06464E
:105660000F4690469946DDE90AAB0C9DEE4800785E
:1056700020B18B2028700020BDE8F09FFDF7A4FF2B
:10568000FFF7D2FF04462CB9FDF7E3FF8620287010
:105690000020F1E7012084F82500A661E76184F885
:1056A0002480C4F80490C4F808A0C4F820B0FDF722
:1056B000D0FF002028702046DEE7002180F825106A
:1056C00080F82410C161416141608160D7A101620D
:1056D00000210161D1490968C160D0490860D04901
:1056E0000988491ECE4A1180CE490988491CCD4AF5
:1056F0001180704730B5057D05F00704CC4D05EBF2
:10570000C4031D68854205D1C168196039B10025FF
:105710000D6104E00169C268CA6002B1116101252E
:1057200080F825500025C56005619D886D1E9D800F
:1057300030BD70B505460C462878642803D0892012
:105740002070002070BDB848007818B18B20207000
:105750000020F7E7FDF738FF95F82500D8B10128BC
:105760000FD002280ED003281BD12846FFF7C2FF16
:105770002846FFF7A2FFFDF76CFF002020700120F4
:10578000E0E700BF2846FFF798FFFDF762FF002023
:1057900020700120D6E7FDF75CFF872020700020F5
:1057A000D0E7FDF756FF8D2020700020CAE72DE9D5
:1057B000F04105460E4614462878642804D0892016
:1057C00020700020BDE8F0819748007818B11120C2
:1057D00020700020F6E7FDF7F7FE95F8250098B158
:1057E000012804D0022803D0032813D100BF00BF32
:1057F000286A30603068FEF7E5F80746FDF729FFB4
:10580000002020703846DDE7FDF723FF8720207059
:105810000020D7E7FDF71DFF8D2020700020D1E785
:1058200070B504460D462078642803D0892028707E
:10583000002070BD7C48007818B18B2028700020B3
:10584000F7E7FDF7C1FE94F8250070B301280DD0ED
:10585000022825D003282FD1764960690968461AA5
:10586000FDF7F7FE002028703046E2E794F82400A8
:1058700001280CD0022809D1A06908B9E66900E026
:10588000A669FDF7E6FE0020287006E000BFA669C5
:10589000FDF7DFFE0020287000BF00BF3046C8E7DC
:1058A000FDF7D7FE00202870C3E7FFE7FDF7D1FE24
:1058B000872028700020BCE7FDF7CBFE8D202870E4
:1058C0000020B6E770B505460C462878642803D05A
:1058D00089202070002070BD5348007818B18B20BB
:1058E00020700020F7E7FDF76FFE95F8256036B1D0
:1058F000012E05D0022E04D0032E06D102E000BFF7
:1059000000BF00BF0020207002E08D20207000BF8B
:1059100000BFFDF79EFE3046DDE770B50B46032560
:1059200080F82550012B05D1424EC56936683544B3
:1059300045610CE085692DB93E4EC5693668354430
:10594000456104E03B4E8569366835444561057D17
:1059500005F00704364D05EBC4010D682DB908604C
:105960000025C56001258D8006E00A680860C260D8
:1059700010618D886D1C8D800025056170BD70B52E
:1059800005460C462878642803D089202070002022
:1059900070BD2548007818B18B2020700020F7E7F3
:1059A000FDF712FE95F82500E8B1012810D0022875
:1059B0000FD003281DD12846FFF79CFE0021284662
:1059C000FFF7ABFFFDF745FE002020700120DFE769
:1059D00000BF00212846FFF7A0FFFDF73AFE002098
:1059E00020700120D4E7FDF734FE872020700020CE
:1059F000CEE7FDF72EFE8D2020700020C8E72DE9B0
:105A0000F04105460F4690461C462878642813D07E
:105A1000892020700020BDE8F0810000D000002027
:105A2000C2000020C0000020910000203F000000C4
:105A3000A4460020C40000207848007818B18B20CC
:105A400020700020E7E7FDF7BFFD95F8250000284E
:105A500032D001282AD0022827D0032832D1284664
:105A6000FFF748FE00202070B7B1032F02D0042FAB
:105A700013D108E06E681EB12846A968B04701E05E
:105A80008F2020700CE06E681EB141462846B0475A
:105A900001E08F20207003E002E08420207000BF2E
:105AA00000BFFDF7D6FD0120B5E700BFFDF7D1FD32
:105AB0008E2020700120AEE7FDF7CBFD87202070FF
:105AC0000020A8E7FDF7C5FD8D2020700020A2E78B
:105AD00010B553480068FFF771F80446204610BD22
